:03000000020AA44D
:030033000209F9C6
:03004300020800B0
:03005300020800A0
:1000800090E6B9E0700302015B14700302020424DD
:10009000FE700302029924FB7003020155147003E1
:1000A00002014F147003020143147003020149243A
:1000B000056003020305120EC6400302031190E619
:1000C000BBE024FE602C14604724FD6016146031F0
:1000D00024067065E54C90E6B3F0E54D90E6B4F08B
:1000E000020311E55490E6B3F0E55590E6B4F00252
:1000F0000311E54E90E6B3F0E54F90E6B4F002034D
:1001000011E55090E6B3F0E55190E6B4F00203112A
:1001100090E6BAE0FF120D6AAA06A9077B01EA4938
:10012000600DEE90E6B3F0EF90E6B4F002031190AC
:10013000E6A0E04401F002031190E6A0E04401F0E3
:10014000020311120E61020311120EB40203111206
:100150000EAC020311120E4F020311120EC840031F
:1001600002031190E6B8E0247F602B14603C240267
:1001700060030201FAA200E433FF25E0FFA202E4DB
:10018000334F90E740F0E4A3F090E68AF090E68BDE
:100190007402F0020311E490E740F0A3F090E68AC5
:1001A000F090E68B7402F002031190E6BCE0547EFE
:1001B000FF7E00E0D3948040067C007D0180047CBB
:1001C000007D00EC4EFEED4F24A2F582740E3EF54C
:1001D00083E493FF3395E0FEEF24A1FFEE34E68F36
:1001E00082F583E0540190E740F0E4A3F090E68AC2
:1001F000F090E68B7402F002031190E6A0E0440157
:10020000F0020311120ECA400302031190E6B8E097
:1002100024FE601D2402600302031190E6BAE0B4DC
:100220000105C20002031190E6A0E04401F00203C0
:100230001190E6BAE0705990E6BCE0547EFF7E0073
:10024000E0D3948040067C007D0180047C007D002A
:10025000EC4EFEED4F24A2F582740E3EF583E4933E
:10026000FF3395E0FEEF24A1FFEE34E68F82F583A5
:10027000E054FEF090E6BCE05480FF131313541FCB
:10028000FFE0540F2F90E683F0E04420F0020311CA
:1002900090E6A0E04401F08078120ECC507390E616
:1002A000B8E024FE60202402706790E6BAE0B40152
:1002B00004D200805C90E6BAE06402605490E6A04C
:1002C000E04401F0804B90E6BCE0547EFF7E00E00D
:1002D000D3948040067C007D0180047C007D00EC8E
:1002E0004EFEED4F24A2F582740E3EF583E493FF9B
:1002F0003395E0FEEF24A1FFEE34E68F82F583E034
:100300004401F0800C120319500790E6A0E044016C
:10031000F090E6A0E04480F02290E6B9E0244D7031
:10032000030203AD14700302041514700302046485
:100330001470030204A82404600302053E2006FD95
:1003400090E6F574FFF000000090E6C074BBF0008A
:1003500000007F73120E9390E6047480F00000009A
:100360007408F0000000E4F000000090E6D0741083
:10037000F0000000E490E6D1F0000000E522700EED
:10038000F54775456475230475221F120B307FFFF6
:10039000120E9390E74074B2F0E490E68AF090E693
:1003A0008B04F090E6A0E04480F002054090E6F473
:1003B000E030E1412006FD90E6F574FFF00000001A
:1003C00090E6C074BBF00000007F77120E9390E6B9
:1003D000047480F00000007408F0000000E4F000F5
:1003E000000090E6ECE0901087F000000090E741FC
:1003F0007401F08005E490E741F090E74074B3F0B9
:10040000E490E68AF090E68B7402F090E6A0E04477
:1004100080F0020540E490E68BF0F544E5BA30E068
:100420000FC3E5449410748094A75004054480ECF5
:10043000E5BA20E01590E740E0F547A3E0F545A3D5
:10044000E0F523A3E0F522120B3090E74074B4F0FE
:10045000E490E68AF090E68B04F090E6A0E0448019
:10046000F0020540AF497E00AD487C00120BAAE4C3
:10047000F54474242544F8E6FF74412544F582E4EC
:1004800034E7F583EFF00544E544B420E590E74018
:1004900074B5F0E490E68AF090E68B7421F090E673
:1004A000A0E04480F0020540E490E68BF0F544E5DE
:1004B000BA30E00FC3E54494E87480948350040597
:1004C0004480ECE5BA20E05790E740E0F549A3E02E
:1004D000F548A3E0F5186445704BF5447443254492
:1004E000F582E434E7F583E0FF74242544F8A60799
:1004F0000544E544B420E590E678E05418600BAF7D
:10050000497E00AD487C00120C0FE4F518F54474E8
:10051000242544F876550544E544B420F28006E4E9
:10052000F54975482090E74074B6F0E490E68AF00B
:1005300090E68B04F090E6A0E04480F08002D322A5
:10054000C322E4F513F512F511F510C203C200C27F
:1005500002C2011208B87E0A7F008E4C8F4D75547E
:100560000A755512754A0A754B1C75520A75534A1D
:1005700075560A755778EE54E0700302068E7514AE
:10058000007515808E168F17C374A29FFF740A9E84
:10059000CF2402CF3400FEE48F0F8E0EF50DF50C44
:1005A000F50BF50AF509F508AF0FAE0EAD0DAC0C65
:1005B000AB0BAA0AA909A808C3120E73502AE515A5
:1005C000250BF582E514350AF58374CDF0E4FAF9CC
:1005D000F8E50B2401F50BEA350AF50AE93509F5CA
:1005E00009E83508F50880C0E4F50BF50AF509F5CA
:1005F00008AF0FAE0EAD0DAC0CAB0BAA0AA909A843
:1006000008C3120E735035AE0AAF0BE5172FF582F3
:10061000E5163EF583E0FDE5152FF582E5143EF580
:1006200083EDF0E4FAF9F8EF2401F50BEA3EF50A60
:10063000E93509F509E83508F50880B585144C85D4
:10064000154D74002480FF740A34FFFEC3E5559FE6
:10065000F555E5549EF554C3E54F9FF54FE54E9E85
:10066000F54EC3E5519FF551E5509EF550C3E54B5E
:100670009FF54BE54A9EF54AC3E5539FF553E55276
:100680009EF552C3E5579FF557E5569EF556D2E8BD
:1006900043D82090E668E04409F090E65CE0443DF1
:1006A000F0D2AF90E680E020E105D207120D0F9066
:1006B000E680E054F7F0538EF8C2033001051200D3
:1006C00080C2013003291209FD5024C203120D9685
:1006D00020001690E682E030E704E020E1EF90E6AB
:1006E00082E030E604E020E0E4120D3E120EC41277
:1006F00007FF80C722C20790E60174CEF090E6F5AE
:1007000074FFF0901080E090E6F3F0901081E0909C
:10071000E6C3F0901082E090E6C1F0901083E09084
:10072000E6C2F0901085E090E6C0F0901086E09070
:10073000E6F4F07F7F7EE4E4FDEF1FAA0670011E61
:10074000F5828A83E4F00DBD80EF75181075197F6E
:100750007EE47F7FE4FD851982851883E0FC6005D7
:100760008F828E83F0EF1F70011EE519151970023C
:1007700015180DBD80E020073AD2077518107519BD
:100780007F7EE47F7FE4FDEDC3948050E98519828C
:10079000851883E0FC8F828E83E06C6006ECF0C2EB
:1007A0000780D3EF1F70011EE51915197002151887
:1007B0000D80D490E67174FFF090E672E04480F012
:1007C000E490E6C4F090E6C5F090E6C37487F0E4E8
:1007D00090E6C6F090E6CAF090E6C7F090E6C8F062
:1007E00090E6C9F090E6CB7420F090E6CC7401F06E
:1007F00090E6CD04F0E490E60CF090E67FF0222243
:10080000020DDF00020E2500020E0F00020DF700A0
:10081000020CD900020C9C000209FF00020ECE005F
:10082000020ECF00020ED000020ED100020ED20046
:10083000020ED300020ED400020ED500020ED60026
:10084000020ED700020ECE00020ED800020ED90012
:10085000020EDA00020EDB00020EDC00020EDD00EA
:10086000020EDE00020ECE00020ECE00020ECE0000
:10087000020EDF00020EE000020EE100020EE200B6
:10088000020EE300020EE400020EE500020EE60096
:10089000020EE700020EE800020EE900020EEA0076
:1008A000020EEB00020EEC00020EED00020EEE0056
:1008B000020EEF00020EF00090E600E054E7441054
:1008C000F090E6827404F090E601E04440F090E697
:1008D0001374A0F000000090E61574E0F000000032
:1008E00090E6187404F000000090E619F000000093
:1008F00090E61AF000000090E61B7408F00000007B
:1009000090E6EA7402F000000090E6047480F000C3
:1009100000007408F0000000E4F000000043AF01A4
:10092000D2001206F575B50A75B00875B2FE75806D
:100930000275B4FFE4F5A075B6FFF5B190E680E06E
:1009400030E70F90E6267402F0000000E490E627FE
:10095000F022E490E626F000000090E6277440F0D4
:10096000226080100001083A010404040702020317
:100970000000001000FBFAFAFFFFFFFFFF00090074
:10098000001B2D3F3F0101083B0404040700000049
:100990000300001000FFFEFEFEFFFFFFFF0012122B
:1009A000001B2D3F3F0108390120202007020203D0
:1009B0000000000000FBF9F9FFFFFFFFFF0909003D
:1009C00000002D363F0104082208382007010000EE
:1009D0000102010000FFFFFDFDFFFFFFFF360912CE
:1009E00000002D363F471080200000FF061B11013C
:1009F0002200C106C105C1040053D8EF32D3223210
:100A00001201000200000040D70B12A000000102FA
:100A100000010A06000200000040010009022E0049
:100A200001010080320904000004FF0000000705F6
:100A30000202000200070504020002000705860208
:100A40000002000705880200020009022E000101D1
:100A50000080320904000004FF00000007050202C4
:100A60004000000705040240000007058602400020
:100A70000007058802400000040309041603530020
:100A8000740065006C006C00610072004E0065002F
:100A9000740010035500530042003200450050001E
:100AA00050000000787FE4F6D8FD758157020AEB0C
:100AB000020542E493A3F8E493A34003F68001F215
:100AC00008DFF48029E493A3F85407240CC8C33347
:100AD000C4540F4420C8834004F456800146F6DF16
:100AE000E4800B0102040810204080900961E47E3C
:100AF000019360BCA3FF543F30E509541FFEE4930B
:100B0000A360010ECF54C025E060A840B8E493A3D1
:100B1000FAE493A3F8E493A3C8C582C8CAC583CAFC
:100B2000F0A3C8C582C8CAC583CADFE9DEE780BEB4
:100B3000D2067F74120E930000000000007F77122F
:100B40000E937F3E120E3B7F74120E93E522640FCC
:100B5000600CE4FF120E3B7F1F120E3B800AE4FF85
:100B6000120E3B7F0F120E3B7F77120E937F7C128B
:100B70000E3B7F75120E93AF45120E3BAF47120E20
:100B80003B7F77120E937FBE120E3B7F76120E9341
:100B9000E52324F07007AF23120E3B80057F04127B
:100BA0000E3BE4FF120E3BC206228E198F1A8C1BDD
:100BB0008D1C7FA27E00120E8490E679E51AF01259
:100BC0000EBC90E679E51CF0120EBC7FA37E0012ED
:100BD0000E8490E679E0751D00F51E120EBCE4FF50
:100BE00090E679E0FE74242FF8A606120EBC0FBF23
:100BF0001EEE90E678E04420F090E679E0F54212AF
:100C00000EBC90E6787440F090E679E0F543228ED1
:100C1000198F1A8C1B8D1C90E678E020E6F97FA2D4
:100C20007E00120E8490E679E51AF0120EBC90E672
:100C300079E51CF0120EBCE4FFFE74242FF8E69058
:100C4000E679F0120EBC0FBF00010EEF64204E706B
:100C5000E990E6787440F0120DBB228E188F19903F
:100C6000E600E05418700DE518C313F518E51913E4
:100C7000F519801590E600E05418FFBF100BE51938
:100C800025E0F519E51833F518E5191519AE1870B2
:100C90000215184E6005120DAA80EE22C0E0C08336
:100CA000C08290E680E030E720854A4E854B4F8534
:100CB0004F82854E83A37402F0855250855351852F
:100CC0005182855083A37407F05391EF90E65D74D1
:100CD00020F0D082D083D0E032C0E0C083C08285D3
:100CE000524E85534F854F82854E83A37402F08503
:100CF0004A50854B51855182855083A37407F05328
:100D000091EF90E65D7410F0D082D083D0E0323065
:100D1000070990E680E0440AF0800790E680E0440E
:100D200008F07FDC7E05120C5B90E65D74FFF090AE
:100D3000E65FF05391EF90E680E054F7F02290E602
:100D400082E030E004E020E60B90E682E030E1193A
:100D5000E030E71590E680E04401F07F147E001259
:100D60000C5B90E680E054FEF022A907AE56AF5728
:100D70008F828E83A3E064037017AD0119ED7001BB
:100D8000228F828E83E07C002FFDEC3EFEAF05803B
:100D9000DF7E007F002290E682E044C0F090E68192
:100DA000F04387010000000000227400F58690FDEA
:100DB000A57C05A3E582458370F92290E678E020C2
:100DC000E6F97FA27E00120E8490E678E04440F0BF
:100DD00090E678E020E6F990E678E030E1E422C0A1
:100DE000E0C083C082D2015391EF90E65D7401F0C0
:100DF000D082D083D0E032C0E0C083C082D203531F
:100E000091EF90E65D7408F0D082D083D0E032C0DC
:100E1000E0C083C0825391EF90E65D7404F0D0820D
:100E2000D083D0E032C0E0C083C0825391EF90E61F
:100E30005D7402F0D082D083D0E03290E6C0741BA3
:100E4000F0000000E5BB30E7FB90E6F1EFF0229008
:100E5000E740E546F0E490E68AF090E68B04F0D3B4
:100E60002290E740E521F0E490E68AF090E68B04DA
:100E7000F0D322EB9FF5F0EA9E42F0E99D42F0E8C4
:100E80009C45F02290E6787480F090E679EFF012BD
:100E90000EBC2290E6C074BBF000000090E6F1EFBB
:100EA000F0220001020203030404050590E6BAE003
:100EB000F546D32290E6BAE0F521D32290E678E019
:100EC00030E0F922D322D322D322D322D3223232CA
:100ED00032323232323232323232323232323232F2
:100EE00032323232323232323232323232323232E2
:010EF00032CF
:00000001FF00
